{
  "_format": "hh-sol-artifact-1",
  "contractName": "MyEpicNFT",
  "sourceName": "contracts/MyEpicNFT.sol",
  "abi": [
    {
      "inputs": [
        {
          "internalType": "string",
          "name": "baseURI",
          "type": "string"
        }
      ],
      "stateMutability": "nonpayable",
      "type": "constructor"
    },
    {
      "anonymous": false,
      "inputs": [
        {
          "indexed": true,
          "internalType": "address",
          "name": "owner",
          "type": "address"
        },
        {
          "indexed": true,
          "internalType": "address",
          "name": "approved",
          "type": "address"
        },
        {
          "indexed": true,
          "internalType": "uint256",
          "name": "tokenId",
          "type": "uint256"
        }
      ],
      "name": "Approval",
      "type": "event"
    },
    {
      "anonymous": false,
      "inputs": [
        {
          "indexed": true,
          "internalType": "address",
          "name": "owner",
          "type": "address"
        },
        {
          "indexed": true,
          "internalType": "address",
          "name": "operator",
          "type": "address"
        },
        {
          "indexed": false,
          "internalType": "bool",
          "name": "approved",
          "type": "bool"
        }
      ],
      "name": "ApprovalForAll",
      "type": "event"
    },
    {
      "anonymous": false,
      "inputs": [
        {
          "indexed": true,
          "internalType": "address",
          "name": "previousOwner",
          "type": "address"
        },
        {
          "indexed": true,
          "internalType": "address",
          "name": "newOwner",
          "type": "address"
        }
      ],
      "name": "OwnershipTransferred",
      "type": "event"
    },
    {
      "anonymous": false,
      "inputs": [
        {
          "indexed": true,
          "internalType": "address",
          "name": "from",
          "type": "address"
        },
        {
          "indexed": true,
          "internalType": "address",
          "name": "to",
          "type": "address"
        },
        {
          "indexed": true,
          "internalType": "uint256",
          "name": "tokenId",
          "type": "uint256"
        }
      ],
      "name": "Transfer",
      "type": "event"
    },
    {
      "inputs": [],
      "name": "MAX_PER_MINT",
      "outputs": [
        {
          "internalType": "uint256",
          "name": "",
          "type": "uint256"
        }
      ],
      "stateMutability": "view",
      "type": "function"
    },
    {
      "inputs": [],
      "name": "MAX_SUPPLY",
      "outputs": [
        {
          "internalType": "uint256",
          "name": "",
          "type": "uint256"
        }
      ],
      "stateMutability": "view",
      "type": "function"
    },
    {
      "inputs": [],
      "name": "PRICE",
      "outputs": [
        {
          "internalType": "uint256",
          "name": "",
          "type": "uint256"
        }
      ],
      "stateMutability": "view",
      "type": "function"
    },
    {
      "inputs": [],
      "name": "_mintSingleNFT",
      "outputs": [],
      "stateMutability": "nonpayable",
      "type": "function"
    },
    {
      "inputs": [
        {
          "internalType": "address",
          "name": "to",
          "type": "address"
        },
        {
          "internalType": "uint256",
          "name": "tokenId",
          "type": "uint256"
        }
      ],
      "name": "approve",
      "outputs": [],
      "stateMutability": "nonpayable",
      "type": "function"
    },
    {
      "inputs": [
        {
          "internalType": "address",
          "name": "owner",
          "type": "address"
        }
      ],
      "name": "balanceOf",
      "outputs": [
        {
          "internalType": "uint256",
          "name": "",
          "type": "uint256"
        }
      ],
      "stateMutability": "view",
      "type": "function"
    },
    {
      "inputs": [],
      "name": "baseTokenURI",
      "outputs": [
        {
          "internalType": "string",
          "name": "",
          "type": "string"
        }
      ],
      "stateMutability": "view",
      "type": "function"
    },
    {
      "inputs": [
        {
          "internalType": "uint256",
          "name": "tokenId",
          "type": "uint256"
        }
      ],
      "name": "getApproved",
      "outputs": [
        {
          "internalType": "address",
          "name": "",
          "type": "address"
        }
      ],
      "stateMutability": "view",
      "type": "function"
    },
    {
      "inputs": [],
      "name": "howCwbLifted",
      "outputs": [
        {
          "internalType": "uint256",
          "name": "",
          "type": "uint256"
        }
      ],
      "stateMutability": "view",
      "type": "function"
    },
    {
      "inputs": [
        {
          "internalType": "address",
          "name": "owner",
          "type": "address"
        },
        {
          "internalType": "address",
          "name": "operator",
          "type": "address"
        }
      ],
      "name": "isApprovedForAll",
      "outputs": [
        {
          "internalType": "bool",
          "name": "",
          "type": "bool"
        }
      ],
      "stateMutability": "view",
      "type": "function"
    },
    {
      "inputs": [
        {
          "internalType": "uint256",
          "name": "_count",
          "type": "uint256"
        }
      ],
      "name": "mintcwb",
      "outputs": [],
      "stateMutability": "payable",
      "type": "function"
    },
    {
      "inputs": [],
      "name": "name",
      "outputs": [
        {
          "internalType": "string",
          "name": "",
          "type": "string"
        }
      ],
      "stateMutability": "view",
      "type": "function"
    },
    {
      "inputs": [],
      "name": "owner",
      "outputs": [
        {
          "internalType": "address",
          "name": "",
          "type": "address"
        }
      ],
      "stateMutability": "view",
      "type": "function"
    },
    {
      "inputs": [
        {
          "internalType": "uint256",
          "name": "tokenId",
          "type": "uint256"
        }
      ],
      "name": "ownerOf",
      "outputs": [
        {
          "internalType": "address",
          "name": "",
          "type": "address"
        }
      ],
      "stateMutability": "view",
      "type": "function"
    },
    {
      "inputs": [],
      "name": "renounceOwnership",
      "outputs": [],
      "stateMutability": "nonpayable",
      "type": "function"
    },
    {
      "inputs": [
        {
          "internalType": "address",
          "name": "from",
          "type": "address"
        },
        {
          "internalType": "address",
          "name": "to",
          "type": "address"
        },
        {
          "internalType": "uint256",
          "name": "tokenId",
          "type": "uint256"
        }
      ],
      "name": "safeTransferFrom",
      "outputs": [],
      "stateMutability": "nonpayable",
      "type": "function"
    },
    {
      "inputs": [
        {
          "internalType": "address",
          "name": "from",
          "type": "address"
        },
        {
          "internalType": "address",
          "name": "to",
          "type": "address"
        },
        {
          "internalType": "uint256",
          "name": "tokenId",
          "type": "uint256"
        },
        {
          "internalType": "bytes",
          "name": "_data",
          "type": "bytes"
        }
      ],
      "name": "safeTransferFrom",
      "outputs": [],
      "stateMutability": "nonpayable",
      "type": "function"
    },
    {
      "inputs": [
        {
          "internalType": "address",
          "name": "operator",
          "type": "address"
        },
        {
          "internalType": "bool",
          "name": "approved",
          "type": "bool"
        }
      ],
      "name": "setApprovalForAll",
      "outputs": [],
      "stateMutability": "nonpayable",
      "type": "function"
    },
    {
      "inputs": [
        {
          "internalType": "string",
          "name": "_baseTokenURI",
          "type": "string"
        }
      ],
      "name": "setBaseURI",
      "outputs": [],
      "stateMutability": "nonpayable",
      "type": "function"
    },
    {
      "inputs": [
        {
          "internalType": "bytes4",
          "name": "interfaceId",
          "type": "bytes4"
        }
      ],
      "name": "supportsInterface",
      "outputs": [
        {
          "internalType": "bool",
          "name": "",
          "type": "bool"
        }
      ],
      "stateMutability": "view",
      "type": "function"
    },
    {
      "inputs": [],
      "name": "symbol",
      "outputs": [
        {
          "internalType": "string",
          "name": "",
          "type": "string"
        }
      ],
      "stateMutability": "view",
      "type": "function"
    },
    {
      "inputs": [
        {
          "internalType": "uint256",
          "name": "index",
          "type": "uint256"
        }
      ],
      "name": "tokenByIndex",
      "outputs": [
        {
          "internalType": "uint256",
          "name": "",
          "type": "uint256"
        }
      ],
      "stateMutability": "view",
      "type": "function"
    },
    {
      "inputs": [
        {
          "internalType": "address",
          "name": "owner",
          "type": "address"
        },
        {
          "internalType": "uint256",
          "name": "index",
          "type": "uint256"
        }
      ],
      "name": "tokenOfOwnerByIndex",
      "outputs": [
        {
          "internalType": "uint256",
          "name": "",
          "type": "uint256"
        }
      ],
      "stateMutability": "view",
      "type": "function"
    },
    {
      "inputs": [
        {
          "internalType": "uint256",
          "name": "tokenId",
          "type": "uint256"
        }
      ],
      "name": "tokenURI",
      "outputs": [
        {
          "internalType": "string",
          "name": "",
          "type": "string"
        }
      ],
      "stateMutability": "view",
      "type": "function"
    },
    {
      "inputs": [],
      "name": "totalSupply",
      "outputs": [
        {
          "internalType": "uint256",
          "name": "",
          "type": "uint256"
        }
      ],
      "stateMutability": "view",
      "type": "function"
    },
    {
      "inputs": [
        {
          "internalType": "address",
          "name": "from",
          "type": "address"
        },
        {
          "internalType": "address",
          "name": "to",
          "type": "address"
        },
        {
          "internalType": "uint256",
          "name": "tokenId",
          "type": "uint256"
        }
      ],
      "name": "transferFrom",
      "outputs": [],
      "stateMutability": "nonpayable",
      "type": "function"
    },
    {
      "inputs": [
        {
          "internalType": "address",
          "name": "newOwner",
          "type": "address"
        }
      ],
      "name": "transferOwnership",
      "outputs": [],
      "stateMutability": "nonpayable",
      "type": "function"
    }
  ],
  "bytecode": "0x60806040526040518060600160405280602e81526020016200461f602e9139600c908051906020019062000035929190620003fb565b503480156200004357600080fd5b506040516200464d3803806200464d83398181016040528101906200006991906200051d565b6040518060400160405280601281526020017f436572746966696564205765623320426f7900000000000000000000000000008152506040518060400160405280600381526020017f43574200000000000000000000000000000000000000000000000000000000008152508160009080519060200190620000ed929190620003fb565b50806001908051906020019062000106929190620003fb565b505050620001296200011d6200018c60201b60201c565b6200019460201b60201c565b6200013a816200025a60201b60201c565b620001856040518060400160405280601f81526020017f54686973206973207468652043574220636f6e74726163742e20576f616821008152506200030560201b620013711760201c565b50620007c5565b600033905090565b6000600a60009054906101000a900473ffffffffffffffffffffffffffffffffffffffff16905081600a60006101000a81548173ffffffffffffffffffffffffffffffffffffffff021916908373ffffffffffffffffffffffffffffffffffffffff1602179055508173ffffffffffffffffffffffffffffffffffffffff168173ffffffffffffffffffffffffffffffffffffffff167f8be0079c531659141344cd1fd0a4f28419497f9722a3daafe3b4186f6b6457e060405160405180910390a35050565b6200026a6200018c60201b60201c565b73ffffffffffffffffffffffffffffffffffffffff1662000290620003a860201b60201c565b73ffffffffffffffffffffffffffffffffffffffff1614620002e9576040517f08c379a0000000000000000000000000000000000000000000000000000000008152600401620002e090620005ee565b60405180910390fd5b80600c908051906020019062000301929190620003fb565b5050565b620003a5816040516024016200031c9190620005ca565b6040516020818303038152906040527f41304fac000000000000000000000000000000000000000000000000000000007bffffffffffffffffffffffffffffffffffffffffffffffffffffffff19166020820180517bffffffffffffffffffffffffffffffffffffffffffffffffffffffff8381831617835250505050620003d260201b60201c565b50565b6000600a60009054906101000a900473ffffffffffffffffffffffffffffffffffffffff16905090565b60008151905060006a636f6e736f6c652e6c6f679050602083016000808483855afa5050505050565b8280546200040990620006c1565b90600052602060002090601f0160209004810192826200042d576000855562000479565b82601f106200044857805160ff191683800117855562000479565b8280016001018555821562000479579182015b82811115620004785782518255916020019190600101906200045b565b5b5090506200048891906200048c565b5090565b5b80821115620004a75760008160009055506001016200048d565b5090565b6000620004c2620004bc8462000639565b62000610565b905082815260208101848484011115620004db57600080fd5b620004e88482856200068b565b509392505050565b600082601f8301126200050257600080fd5b815162000514848260208601620004ab565b91505092915050565b6000602082840312156200053057600080fd5b600082015167ffffffffffffffff8111156200054b57600080fd5b6200055984828501620004f0565b91505092915050565b60006200056f826200066f565b6200057b81856200067a565b93506200058d8185602086016200068b565b62000598816200078b565b840191505092915050565b6000620005b26020836200067a565b9150620005bf826200079c565b602082019050919050565b60006020820190508181036000830152620005e6818462000562565b905092915050565b600060208201905081810360008301526200060981620005a3565b9050919050565b60006200061c6200062f565b90506200062a8282620006f7565b919050565b6000604051905090565b600067ffffffffffffffff8211156200065757620006566200075c565b5b62000662826200078b565b9050602081019050919050565b600081519050919050565b600082825260208201905092915050565b60005b83811015620006ab5780820151818401526020810190506200068e565b83811115620006bb576000848401525b50505050565b60006002820490506001821680620006da57607f821691505b60208210811415620006f157620006f06200072d565b5b50919050565b62000702826200078b565b810181811067ffffffffffffffff821117156200072457620007236200075c565b5b80604052505050565b7f4e487b7100000000000000000000000000000000000000000000000000000000600052602260045260246000fd5b7f4e487b7100000000000000000000000000000000000000000000000000000000600052604160045260246000fd5b6000601f19601f8301169050919050565b7f4f776e61626c653a2063616c6c6572206973206e6f7420746865206f776e6572600082015250565b613e4a80620007d56000396000f3fe60806040526004361061019c5760003560e01c80636352211e116100ec578063a22cb4651161008a578063d547cfb711610064578063d547cfb7146105c8578063e85e20c4146105f3578063e985e9c51461060f578063f2fde38b1461064c5761019c565b8063a22cb46514610539578063b88d4fde14610562578063c87b56dd1461058b5761019c565b8063825afd56116100c6578063825afd56146104a15780638d859f3e146104b85780638da5cb5b146104e357806395d89b411461050e5761019c565b80636352211e1461041057806370a082311461044d578063715018a61461048a5761019c565b806318160ddd1161015957806332cb6b0c1161013357806332cb6b0c1461035657806342842e0e146103815780634f6ccce7146103aa57806355f804b3146103e75761019c565b806318160ddd146102c557806323b872dd146102f05780632f745c59146103195761019c565b806301ffc9a7146101a157806306fdde03146101de578063081812fc14610209578063095ea7b31461024657806309d42b301461026f578063149bbca91461029a575b600080fd5b3480156101ad57600080fd5b506101c860048036038101906101c39190612ba5565b610675565b6040516101d591906130c4565b60405180910390f35b3480156101ea57600080fd5b506101f36106ef565b60405161020091906130df565b60405180910390f35b34801561021557600080fd5b50610230600480360381019061022b9190612c38565b610781565b60405161023d9190613034565b60405180910390f35b34801561025257600080fd5b5061026d60048036038101906102689190612b69565b610806565b005b34801561027b57600080fd5b5061028461091e565b60405161029191906133a1565b60405180910390f35b3480156102a657600080fd5b506102af610923565b6040516102bc91906133a1565b60405180910390f35b3480156102d157600080fd5b506102da610939565b6040516102e791906133a1565b60405180910390f35b3480156102fc57600080fd5b5061031760048036038101906103129190612a63565b610946565b005b34801561032557600080fd5b50610340600480360381019061033b9190612b69565b6109a6565b60405161034d91906133a1565b60405180910390f35b34801561036257600080fd5b5061036b610a4b565b60405161037891906133a1565b60405180910390f35b34801561038d57600080fd5b506103a860048036038101906103a39190612a63565b610a50565b005b3480156103b657600080fd5b506103d160048036038101906103cc9190612c38565b610a70565b6040516103de91906133a1565b60405180910390f35b3480156103f357600080fd5b5061040e60048036038101906104099190612bf7565b610b07565b005b34801561041c57600080fd5b5061043760048036038101906104329190612c38565b610b9d565b6040516104449190613034565b60405180910390f35b34801561045957600080fd5b50610474600480360381019061046f91906129fe565b610c4f565b60405161048191906133a1565b60405180910390f35b34801561049657600080fd5b5061049f610d07565b005b3480156104ad57600080fd5b506104b6610d8f565b005b3480156104c457600080fd5b506104cd610e3a565b6040516104da91906133a1565b60405180910390f35b3480156104ef57600080fd5b506104f8610e43565b6040516105059190613034565b60405180910390f35b34801561051a57600080fd5b50610523610e6d565b60405161053091906130df565b60405180910390f35b34801561054557600080fd5b50610560600480360381019061055b9190612b2d565b610eff565b005b34801561056e57600080fd5b5061058960048036038101906105849190612ab2565b610f15565b005b34801561059757600080fd5b506105b260048036038101906105ad9190612c38565b610f77565b6040516105bf91906130df565b60405180910390f35b3480156105d457600080fd5b506105dd61101e565b6040516105ea91906130df565b60405180910390f35b61060d60048036038101906106089190612c38565b6110ac565b005b34801561061b57600080fd5b5061063660048036038101906106319190612a27565b6111e5565b60405161064391906130c4565b60405180910390f35b34801561065857600080fd5b50610673600480360381019061066e91906129fe565b611279565b005b60007f780e9d63000000000000000000000000000000000000000000000000000000007bffffffffffffffffffffffffffffffffffffffffffffffffffffffff1916827bffffffffffffffffffffffffffffffffffffffffffffffffffffffff191614806106e857506106e78261140a565b5b9050919050565b6060600080546106fe90613651565b80601f016020809104026020016040519081016040528092919081815260200182805461072a90613651565b80156107775780601f1061074c57610100808354040283529160200191610777565b820191906000526020600020905b81548152906001019060200180831161075a57829003601f168201915b5050505050905090565b600061078c826114ec565b6107cb576040517f08c379a00000000000000000000000000000000000000000000000000000000081526004016107c2906132c1565b60405180910390fd5b6004600083815260200190815260200160002060009054906101000a900473ffffffffffffffffffffffffffffffffffffffff169050919050565b600061081182610b9d565b90508073ffffffffffffffffffffffffffffffffffffffff168373ffffffffffffffffffffffffffffffffffffffff161415610882576040517f08c379a000000000000000000000000000000000000000000000000000000000815260040161087990613341565b60405180910390fd5b8073ffffffffffffffffffffffffffffffffffffffff166108a1611558565b73ffffffffffffffffffffffffffffffffffffffff1614806108d057506108cf816108ca611558565b6111e5565b5b61090f576040517f08c379a000000000000000000000000000000000000000000000000000000000815260040161090690613241565b60405180910390fd5b6109198383611560565b505050565b600181565b600080610930600b611619565b90508091505090565b6000600880549050905090565b610957610951611558565b82611627565b610996576040517f08c379a000000000000000000000000000000000000000000000000000000000815260040161098d90613361565b60405180910390fd5b6109a1838383611705565b505050565b60006109b183610c4f565b82106109f2576040517f08c379a00000000000000000000000000000000000000000000000000000000081526004016109e990613101565b60405180910390fd5b600660008473ffffffffffffffffffffffffffffffffffffffff1673ffffffffffffffffffffffffffffffffffffffff168152602001908152602001600020600083815260200190815260200160002054905092915050565b601581565b610a6b83838360405180602001604052806000815250610f15565b505050565b6000610a7a610939565b8210610abb576040517f08c379a0000000000000000000000000000000000000000000000000000000008152600401610ab290613381565b60405180910390fd5b60088281548110610af5577f4e487b7100000000000000000000000000000000000000000000000000000000600052603260045260246000fd5b90600052602060002001549050919050565b610b0f611558565b73ffffffffffffffffffffffffffffffffffffffff16610b2d610e43565b73ffffffffffffffffffffffffffffffffffffffff1614610b83576040517f08c379a0000000000000000000000000000000000000000000000000000000008152600401610b7a906132e1565b60405180910390fd5b80600c9080519060200190610b99929190612822565b5050565b6000806002600084815260200190815260200160002060009054906101000a900473ffffffffffffffffffffffffffffffffffffffff169050600073ffffffffffffffffffffffffffffffffffffffff168173ffffffffffffffffffffffffffffffffffffffff161415610c46576040517f08c379a0000000000000000000000000000000000000000000000000000000008152600401610c3d90613281565b60405180910390fd5b80915050919050565b60008073ffffffffffffffffffffffffffffffffffffffff168273ffffffffffffffffffffffffffffffffffffffff161415610cc0576040517f08c379a0000000000000000000000000000000000000000000000000000000008152600401610cb790613261565b60405180910390fd5b600360008373ffffffffffffffffffffffffffffffffffffffff1673ffffffffffffffffffffffffffffffffffffffff168152602001908152602001600020549050919050565b610d0f611558565b73ffffffffffffffffffffffffffffffffffffffff16610d2d610e43565b73ffffffffffffffffffffffffffffffffffffffff1614610d83576040517f08c379a0000000000000000000000000000000000000000000000000000000008152600401610d7a906132e1565b60405180910390fd5b610d8d6000611961565b565b6000610d9b600b611619565b9050610ddb6040518060400160405280601581526020017f0a2d2d2d2d2d2d2d2d2d2d2d2d2d2d2d2d2d2d2d2d0000000000000000000000815250611371565b610de53382611a27565b610e236040518060400160405280601581526020017f2d2d2d2d2d2d2d2d2d2d2d2d2d2d2d2d2d2d2d2d0a0000000000000000000000815250611371565b610e2d3382611ac3565b610e37600b611ae1565b50565b6402540be40081565b6000600a60009054906101000a900473ffffffffffffffffffffffffffffffffffffffff16905090565b606060018054610e7c90613651565b80601f0160208091040260200160405190810160405280929190818152602001828054610ea890613651565b8015610ef55780601f10610eca57610100808354040283529160200191610ef5565b820191906000526020600020905b815481529060010190602001808311610ed857829003601f168201915b5050505050905090565b610f11610f0a611558565b8383611af7565b5050565b610f26610f20611558565b83611627565b610f65576040517f08c379a0000000000000000000000000000000000000000000000000000000008152600401610f5c90613361565b60405180910390fd5b610f7184848484611c64565b50505050565b6060610f82826114ec565b610fc1576040517f08c379a0000000000000000000000000000000000000000000000000000000008152600401610fb890613321565b60405180910390fd5b6000610fcb611cc0565b90506000815111610feb5760405180602001604052806000815250611016565b80610ff584611d52565b604051602001611006929190613010565b6040516020818303038152906040525b915050919050565b600c805461102b90613651565b80601f016020809104026020016040519081016040528092919081815260200182805461105790613651565b80156110a45780601f10611079576101008083540402835291602001916110a4565b820191906000526020600020905b81548152906001019060200180831161108757829003601f168201915b505050505081565b60006110b8600b611619565b905060156110cf8383611eff90919063ffffffff16565b1115611110576040517f08c379a0000000000000000000000000000000000000000000000000000000008152600401611107906131e1565b60405180910390fd5b600082118015611121575060018211155b611160576040517f08c379a000000000000000000000000000000000000000000000000000000000815260040161115790613201565b60405180910390fd5b611178826402540be400611f1590919063ffffffff16565b3410156111ba576040517f08c379a00000000000000000000000000000000000000000000000000000000081526004016111b1906131c1565b60405180910390fd5b60005b828110156111e0576111cd610d8f565b80806111d8906136b4565b9150506111bd565b505050565b6000600560008473ffffffffffffffffffffffffffffffffffffffff1673ffffffffffffffffffffffffffffffffffffffff16815260200190815260200160002060008373ffffffffffffffffffffffffffffffffffffffff1673ffffffffffffffffffffffffffffffffffffffff16815260200190815260200160002060009054906101000a900460ff16905092915050565b611281611558565b73ffffffffffffffffffffffffffffffffffffffff1661129f610e43565b73ffffffffffffffffffffffffffffffffffffffff16146112f5576040517f08c379a00000000000000000000000000000000000000000000000000000000081526004016112ec906132e1565b60405180910390fd5b600073ffffffffffffffffffffffffffffffffffffffff168173ffffffffffffffffffffffffffffffffffffffff161415611365576040517f08c379a000000000000000000000000000000000000000000000000000000000815260040161135c90613141565b60405180910390fd5b61136e81611961565b50565b6114078160405160240161138591906130df565b6040516020818303038152906040527f41304fac000000000000000000000000000000000000000000000000000000007bffffffffffffffffffffffffffffffffffffffffffffffffffffffff19166020820180517bffffffffffffffffffffffffffffffffffffffffffffffffffffffff8381831617835250505050611f2b565b50565b60007f80ac58cd000000000000000000000000000000000000000000000000000000007bffffffffffffffffffffffffffffffffffffffffffffffffffffffff1916827bffffffffffffffffffffffffffffffffffffffffffffffffffffffff191614806114d557507f5b5e139f000000000000000000000000000000000000000000000000000000007bffffffffffffffffffffffffffffffffffffffffffffffffffffffff1916827bffffffffffffffffffffffffffffffffffffffffffffffffffffffff1916145b806114e557506114e482611f54565b5b9050919050565b60008073ffffffffffffffffffffffffffffffffffffffff166002600084815260200190815260200160002060009054906101000a900473ffffffffffffffffffffffffffffffffffffffff1673ffffffffffffffffffffffffffffffffffffffff1614159050919050565b600033905090565b816004600083815260200190815260200160002060006101000a81548173ffffffffffffffffffffffffffffffffffffffff021916908373ffffffffffffffffffffffffffffffffffffffff160217905550808273ffffffffffffffffffffffffffffffffffffffff166115d383610b9d565b73ffffffffffffffffffffffffffffffffffffffff167f8c5be1e5ebec7d5bd14f71427d1e84f3dd0314c0f7b2291e5b200ac8c7c3b92560405160405180910390a45050565b600081600001549050919050565b6000611632826114ec565b611671576040517f08c379a000000000000000000000000000000000000000000000000000000000815260040161166890613221565b60405180910390fd5b600061167c83610b9d565b90508073ffffffffffffffffffffffffffffffffffffffff168473ffffffffffffffffffffffffffffffffffffffff1614806116eb57508373ffffffffffffffffffffffffffffffffffffffff166116d384610781565b73ffffffffffffffffffffffffffffffffffffffff16145b806116fc57506116fb81856111e5565b5b91505092915050565b8273ffffffffffffffffffffffffffffffffffffffff1661172582610b9d565b73ffffffffffffffffffffffffffffffffffffffff161461177b576040517f08c379a000000000000000000000000000000000000000000000000000000000815260040161177290613301565b60405180910390fd5b600073ffffffffffffffffffffffffffffffffffffffff168273ffffffffffffffffffffffffffffffffffffffff1614156117eb576040517f08c379a00000000000000000000000000000000000000000000000000000000081526004016117e290613181565b60405180910390fd5b6117f6838383611fbe565b611801600082611560565b6001600360008573ffffffffffffffffffffffffffffffffffffffff1673ffffffffffffffffffffffffffffffffffffffff16815260200190815260200160002060008282546118519190613567565b925050819055506001600360008473ffffffffffffffffffffffffffffffffffffffff1673ffffffffffffffffffffffffffffffffffffffff16815260200190815260200160002060008282546118a89190613486565b92505081905550816002600083815260200190815260200160002060006101000a81548173ffffffffffffffffffffffffffffffffffffffff021916908373ffffffffffffffffffffffffffffffffffffffff160217905550808273ffffffffffffffffffffffffffffffffffffffff168473ffffffffffffffffffffffffffffffffffffffff167fddf252ad1be2c89b69c2b068fc378daa952ba7f163c4a11628f55a4df523b3ef60405160405180910390a4505050565b6000600a60009054906101000a900473ffffffffffffffffffffffffffffffffffffffff16905081600a60006101000a81548173ffffffffffffffffffffffffffffffffffffffff021916908373ffffffffffffffffffffffffffffffffffffffff1602179055508173ffffffffffffffffffffffffffffffffffffffff168173ffffffffffffffffffffffffffffffffffffffff167f8be0079c531659141344cd1fd0a4f28419497f9722a3daafe3b4186f6b6457e060405160405180910390a35050565b611abf8282604051602401611a3d92919061309b565b6040516020818303038152906040527f2243cfa3000000000000000000000000000000000000000000000000000000007bffffffffffffffffffffffffffffffffffffffffffffffffffffffff19166020820180517bffffffffffffffffffffffffffffffffffffffffffffffffffffffff8381831617835250505050611f2b565b5050565b611add8282604051806020016040528060008152506120d2565b5050565b6001816000016000828254019250508190555050565b8173ffffffffffffffffffffffffffffffffffffffff168373ffffffffffffffffffffffffffffffffffffffff161415611b66576040517f08c379a0000000000000000000000000000000000000000000000000000000008152600401611b5d906131a1565b60405180910390fd5b80600560008573ffffffffffffffffffffffffffffffffffffffff1673ffffffffffffffffffffffffffffffffffffffff16815260200190815260200160002060008473ffffffffffffffffffffffffffffffffffffffff1673ffffffffffffffffffffffffffffffffffffffff16815260200190815260200160002060006101000a81548160ff0219169083151502179055508173ffffffffffffffffffffffffffffffffffffffff168373ffffffffffffffffffffffffffffffffffffffff167f17307eab39ab6107e8899845ad3d59bd9653f200f220920489ca2b5937696c3183604051611c5791906130c4565b60405180910390a3505050565b611c6f848484611705565b611c7b8484848461212d565b611cba576040517f08c379a0000000000000000000000000000000000000000000000000000000008152600401611cb190613121565b60405180910390fd5b50505050565b6060600c8054611ccf90613651565b80601f0160208091040260200160405190810160405280929190818152602001828054611cfb90613651565b8015611d485780601f10611d1d57610100808354040283529160200191611d48565b820191906000526020600020905b815481529060010190602001808311611d2b57829003601f168201915b5050505050905090565b60606000821415611d9a576040518060400160405280600181526020017f30000000000000000000000000000000000000000000000000000000000000008152509050611efa565b600082905060005b60008214611dcc578080611db5906136b4565b915050600a82611dc591906134dc565b9150611da2565b60008167ffffffffffffffff811115611e0e577f4e487b7100000000000000000000000000000000000000000000000000000000600052604160045260246000fd5b6040519080825280601f01601f191660200182016040528015611e405781602001600182028036833780820191505090505b5090505b60008514611ef357600182611e599190613567565b9150600a85611e6891906136fd565b6030611e749190613486565b60f81b818381518110611eb0577f4e487b7100000000000000000000000000000000000000000000000000000000600052603260045260246000fd5b60200101907effffffffffffffffffffffffffffffffffffffffffffffffffffffffffffff1916908160001a905350600a85611eec91906134dc565b9450611e44565b8093505050505b919050565b60008183611f0d9190613486565b905092915050565b60008183611f23919061350d565b905092915050565b60008151905060006a636f6e736f6c652e6c6f679050602083016000808483855afa5050505050565b60007f01ffc9a7000000000000000000000000000000000000000000000000000000007bffffffffffffffffffffffffffffffffffffffffffffffffffffffff1916827bffffffffffffffffffffffffffffffffffffffffffffffffffffffff1916149050919050565b611fc98383836122c4565b600073ffffffffffffffffffffffffffffffffffffffff168373ffffffffffffffffffffffffffffffffffffffff16141561200c57612007816122c9565b61204b565b8173ffffffffffffffffffffffffffffffffffffffff168373ffffffffffffffffffffffffffffffffffffffff161461204a576120498382612312565b5b5b600073ffffffffffffffffffffffffffffffffffffffff168273ffffffffffffffffffffffffffffffffffffffff16141561208e576120898161247f565b6120cd565b8273ffffffffffffffffffffffffffffffffffffffff168273ffffffffffffffffffffffffffffffffffffffff16146120cc576120cb82826125c2565b5b5b505050565b6120dc8383612641565b6120e9600084848461212d565b612128576040517f08c379a000000000000000000000000000000000000000000000000000000000815260040161211f90613121565b60405180910390fd5b505050565b600061214e8473ffffffffffffffffffffffffffffffffffffffff1661280f565b156122b7578373ffffffffffffffffffffffffffffffffffffffff1663150b7a02612177611558565b8786866040518563ffffffff1660e01b8152600401612199949392919061304f565b602060405180830381600087803b1580156121b357600080fd5b505af19250505080156121e457506040513d601f19601f820116820180604052508101906121e19190612bce565b60015b612267573d8060008114612214576040519150601f19603f3d011682016040523d82523d6000602084013e612219565b606091505b5060008151141561225f576040517f08c379a000000000000000000000000000000000000000000000000000000000815260040161225690613121565b60405180910390fd5b805181602001fd5b63150b7a0260e01b7bffffffffffffffffffffffffffffffffffffffffffffffffffffffff1916817bffffffffffffffffffffffffffffffffffffffffffffffffffffffff1916149150506122bc565b600190505b949350505050565b505050565b6008805490506009600083815260200190815260200160002081905550600881908060018154018082558091505060019003906000526020600020016000909190919091505550565b6000600161231f84610c4f565b6123299190613567565b905060006007600084815260200190815260200160002054905081811461240e576000600660008673ffffffffffffffffffffffffffffffffffffffff1673ffffffffffffffffffffffffffffffffffffffff168152602001908152602001600020600084815260200190815260200160002054905080600660008773ffffffffffffffffffffffffffffffffffffffff1673ffffffffffffffffffffffffffffffffffffffff168152602001908152602001600020600084815260200190815260200160002081905550816007600083815260200190815260200160002081905550505b6007600084815260200190815260200160002060009055600660008573ffffffffffffffffffffffffffffffffffffffff1673ffffffffffffffffffffffffffffffffffffffff16815260200190815260200160002060008381526020019081526020016000206000905550505050565b600060016008805490506124939190613567565b90506000600960008481526020019081526020016000205490506000600883815481106124e9577f4e487b7100000000000000000000000000000000000000000000000000000000600052603260045260246000fd5b906000526020600020015490508060088381548110612531577f4e487b7100000000000000000000000000000000000000000000000000000000600052603260045260246000fd5b9060005260206000200181905550816009600083815260200190815260200160002081905550600960008581526020019081526020016000206000905560088054806125a6577f4e487b7100000000000000000000000000000000000000000000000000000000600052603160045260246000fd5b6001900381819060005260206000200160009055905550505050565b60006125cd83610c4f565b905081600660008573ffffffffffffffffffffffffffffffffffffffff1673ffffffffffffffffffffffffffffffffffffffff168152602001908152602001600020600083815260200190815260200160002081905550806007600084815260200190815260200160002081905550505050565b600073ffffffffffffffffffffffffffffffffffffffff168273ffffffffffffffffffffffffffffffffffffffff1614156126b1576040517f08c379a00000000000000000000000000000000000000000000000000000000081526004016126a8906132a1565b60405180910390fd5b6126ba816114ec565b156126fa576040517f08c379a00000000000000000000000000000000000000000000000000000000081526004016126f190613161565b60405180910390fd5b61270660008383611fbe565b6001600360008473ffffffffffffffffffffffffffffffffffffffff1673ffffffffffffffffffffffffffffffffffffffff16815260200190815260200160002060008282546127569190613486565b92505081905550816002600083815260200190815260200160002060006101000a81548173ffffffffffffffffffffffffffffffffffffffff021916908373ffffffffffffffffffffffffffffffffffffffff160217905550808273ffffffffffffffffffffffffffffffffffffffff16600073ffffffffffffffffffffffffffffffffffffffff167fddf252ad1be2c89b69c2b068fc378daa952ba7f163c4a11628f55a4df523b3ef60405160405180910390a45050565b600080823b905060008111915050919050565b82805461282e90613651565b90600052602060002090601f0160209004810192826128505760008555612897565b82601f1061286957805160ff1916838001178555612897565b82800160010185558215612897579182015b8281111561289657825182559160200191906001019061287b565b5b5090506128a491906128a8565b5090565b5b808211156128c15760008160009055506001016128a9565b5090565b60006128d86128d3846133e1565b6133bc565b9050828152602081018484840111156128f057600080fd5b6128fb84828561360f565b509392505050565b600061291661291184613412565b6133bc565b90508281526020810184848401111561292e57600080fd5b61293984828561360f565b509392505050565b60008135905061295081613db8565b92915050565b60008135905061296581613dcf565b92915050565b60008135905061297a81613de6565b92915050565b60008151905061298f81613de6565b92915050565b600082601f8301126129a657600080fd5b81356129b68482602086016128c5565b91505092915050565b600082601f8301126129d057600080fd5b81356129e0848260208601612903565b91505092915050565b6000813590506129f881613dfd565b92915050565b600060208284031215612a1057600080fd5b6000612a1e84828501612941565b91505092915050565b60008060408385031215612a3a57600080fd5b6000612a4885828601612941565b9250506020612a5985828601612941565b9150509250929050565b600080600060608486031215612a7857600080fd5b6000612a8686828701612941565b9350506020612a9786828701612941565b9250506040612aa8868287016129e9565b9150509250925092565b60008060008060808587031215612ac857600080fd5b6000612ad687828801612941565b9450506020612ae787828801612941565b9350506040612af8878288016129e9565b925050606085013567ffffffffffffffff811115612b1557600080fd5b612b2187828801612995565b91505092959194509250565b60008060408385031215612b4057600080fd5b6000612b4e85828601612941565b9250506020612b5f85828601612956565b9150509250929050565b60008060408385031215612b7c57600080fd5b6000612b8a85828601612941565b9250506020612b9b858286016129e9565b9150509250929050565b600060208284031215612bb757600080fd5b6000612bc58482850161296b565b91505092915050565b600060208284031215612be057600080fd5b6000612bee84828501612980565b91505092915050565b600060208284031215612c0957600080fd5b600082013567ffffffffffffffff811115612c2357600080fd5b612c2f848285016129bf565b91505092915050565b600060208284031215612c4a57600080fd5b6000612c58848285016129e9565b91505092915050565b612c6a8161359b565b82525050565b612c79816135ad565b82525050565b6000612c8a82613443565b612c948185613459565b9350612ca481856020860161361e565b612cad816137ea565b840191505092915050565b6000612cc38261344e565b612ccd818561346a565b9350612cdd81856020860161361e565b612ce6816137ea565b840191505092915050565b6000612cfc8261344e565b612d06818561347b565b9350612d1681856020860161361e565b80840191505092915050565b6000612d2f602b8361346a565b9150612d3a826137fb565b604082019050919050565b6000612d5260328361346a565b9150612d5d8261384a565b604082019050919050565b6000612d7560268361346a565b9150612d8082613899565b604082019050919050565b6000612d98601c8361346a565b9150612da3826138e8565b602082019050919050565b6000612dbb60248361346a565b9150612dc682613911565b604082019050919050565b6000612dde60198361346a565b9150612de982613960565b602082019050919050565b6000612e0160228361346a565b9150612e0c82613989565b604082019050919050565b6000612e2460158361346a565b9150612e2f826139d8565b602082019050919050565b6000612e4760258361346a565b9150612e5282613a01565b604082019050919050565b6000612e6a602c8361346a565b9150612e7582613a50565b604082019050919050565b6000612e8d60388361346a565b9150612e9882613a9f565b604082019050919050565b6000612eb0602a8361346a565b9150612ebb82613aee565b604082019050919050565b6000612ed360298361346a565b9150612ede82613b3d565b604082019050919050565b6000612ef660208361346a565b9150612f0182613b8c565b602082019050919050565b6000612f19602c8361346a565b9150612f2482613bb5565b604082019050919050565b6000612f3c60208361346a565b9150612f4782613c04565b602082019050919050565b6000612f5f60298361346a565b9150612f6a82613c2d565b604082019050919050565b6000612f82602f8361346a565b9150612f8d82613c7c565b604082019050919050565b6000612fa560218361346a565b9150612fb082613ccb565b604082019050919050565b6000612fc860318361346a565b9150612fd382613d1a565b604082019050919050565b6000612feb602c8361346a565b9150612ff682613d69565b604082019050919050565b61300a81613605565b82525050565b600061301c8285612cf1565b91506130288284612cf1565b91508190509392505050565b60006020820190506130496000830184612c61565b92915050565b60006080820190506130646000830187612c61565b6130716020830186612c61565b61307e6040830185613001565b81810360608301526130908184612c7f565b905095945050505050565b60006040820190506130b06000830185612c61565b6130bd6020830184613001565b9392505050565b60006020820190506130d96000830184612c70565b92915050565b600060208201905081810360008301526130f98184612cb8565b905092915050565b6000602082019050818103600083015261311a81612d22565b9050919050565b6000602082019050818103600083015261313a81612d45565b9050919050565b6000602082019050818103600083015261315a81612d68565b9050919050565b6000602082019050818103600083015261317a81612d8b565b9050919050565b6000602082019050818103600083015261319a81612dae565b9050919050565b600060208201905081810360008301526131ba81612dd1565b9050919050565b600060208201905081810360008301526131da81612df4565b9050919050565b600060208201905081810360008301526131fa81612e17565b9050919050565b6000602082019050818103600083015261321a81612e3a565b9050919050565b6000602082019050818103600083015261323a81612e5d565b9050919050565b6000602082019050818103600083015261325a81612e80565b9050919050565b6000602082019050818103600083015261327a81612ea3565b9050919050565b6000602082019050818103600083015261329a81612ec6565b9050919050565b600060208201905081810360008301526132ba81612ee9565b9050919050565b600060208201905081810360008301526132da81612f0c565b9050919050565b600060208201905081810360008301526132fa81612f2f565b9050919050565b6000602082019050818103600083015261331a81612f52565b9050919050565b6000602082019050818103600083015261333a81612f75565b9050919050565b6000602082019050818103600083015261335a81612f98565b9050919050565b6000602082019050818103600083015261337a81612fbb565b9050919050565b6000602082019050818103600083015261339a81612fde565b9050919050565b60006020820190506133b66000830184613001565b92915050565b60006133c66133d7565b90506133d28282613683565b919050565b6000604051905090565b600067ffffffffffffffff8211156133fc576133fb6137bb565b5b613405826137ea565b9050602081019050919050565b600067ffffffffffffffff82111561342d5761342c6137bb565b5b613436826137ea565b9050602081019050919050565b600081519050919050565b600081519050919050565b600082825260208201905092915050565b600082825260208201905092915050565b600081905092915050565b600061349182613605565b915061349c83613605565b9250827fffffffffffffffffffffffffffffffffffffffffffffffffffffffffffffffff038211156134d1576134d061372e565b5b828201905092915050565b60006134e782613605565b91506134f283613605565b9250826135025761350161375d565b5b828204905092915050565b600061351882613605565b915061352383613605565b9250817fffffffffffffffffffffffffffffffffffffffffffffffffffffffffffffffff048311821515161561355c5761355b61372e565b5b828202905092915050565b600061357282613605565b915061357d83613605565b9250828210156135905761358f61372e565b5b828203905092915050565b60006135a6826135e5565b9050919050565b60008115159050919050565b60007fffffffff0000000000000000000000000000000000000000000000000000000082169050919050565b600073ffffffffffffffffffffffffffffffffffffffff82169050919050565b6000819050919050565b82818337600083830152505050565b60005b8381101561363c578082015181840152602081019050613621565b8381111561364b576000848401525b50505050565b6000600282049050600182168061366957607f821691505b6020821081141561367d5761367c61378c565b5b50919050565b61368c826137ea565b810181811067ffffffffffffffff821117156136ab576136aa6137bb565b5b80604052505050565b60006136bf82613605565b91507fffffffffffffffffffffffffffffffffffffffffffffffffffffffffffffffff8214156136f2576136f161372e565b5b600182019050919050565b600061370882613605565b915061371383613605565b9250826137235761372261375d565b5b828206905092915050565b7f4e487b7100000000000000000000000000000000000000000000000000000000600052601160045260246000fd5b7f4e487b7100000000000000000000000000000000000000000000000000000000600052601260045260246000fd5b7f4e487b7100000000000000000000000000000000000000000000000000000000600052602260045260246000fd5b7f4e487b7100000000000000000000000000000000000000000000000000000000600052604160045260246000fd5b6000601f19601f8301169050919050565b7f455243373231456e756d657261626c653a206f776e657220696e646578206f7560008201527f74206f6620626f756e6473000000000000000000000000000000000000000000602082015250565b7f4552433732313a207472616e7366657220746f206e6f6e20455243373231526560008201527f63656976657220696d706c656d656e7465720000000000000000000000000000602082015250565b7f4f776e61626c653a206e6577206f776e657220697320746865207a65726f206160008201527f6464726573730000000000000000000000000000000000000000000000000000602082015250565b7f4552433732313a20746f6b656e20616c7265616479206d696e74656400000000600082015250565b7f4552433732313a207472616e7366657220746f20746865207a65726f2061646460008201527f7265737300000000000000000000000000000000000000000000000000000000602082015250565b7f4552433732313a20617070726f766520746f2063616c6c657200000000000000600082015250565b7f4e6f7420656e6f75676820657468657220746f207075726368617365204e465460008201527f732e000000000000000000000000000000000000000000000000000000000000602082015250565b7f4e6f7420656e6f756768204e465473206c656674210000000000000000000000600082015250565b7f43616e6e6f74206d696e7420737065636966696564206e756d626572206f662060008201527f4e4654732e000000000000000000000000000000000000000000000000000000602082015250565b7f4552433732313a206f70657261746f7220717565727920666f72206e6f6e657860008201527f697374656e7420746f6b656e0000000000000000000000000000000000000000602082015250565b7f4552433732313a20617070726f76652063616c6c6572206973206e6f74206f7760008201527f6e6572206e6f7220617070726f76656420666f7220616c6c0000000000000000602082015250565b7f4552433732313a2062616c616e636520717565727920666f7220746865207a6560008201527f726f206164647265737300000000000000000000000000000000000000000000602082015250565b7f4552433732313a206f776e657220717565727920666f72206e6f6e657869737460008201527f656e7420746f6b656e0000000000000000000000000000000000000000000000602082015250565b7f4552433732313a206d696e7420746f20746865207a65726f2061646472657373600082015250565b7f4552433732313a20617070726f76656420717565727920666f72206e6f6e657860008201527f697374656e7420746f6b656e0000000000000000000000000000000000000000602082015250565b7f4f776e61626c653a2063616c6c6572206973206e6f7420746865206f776e6572600082015250565b7f4552433732313a207472616e73666572206f6620746f6b656e2074686174206960008201527f73206e6f74206f776e0000000000000000000000000000000000000000000000602082015250565b7f4552433732314d657461646174613a2055524920717565727920666f72206e6f60008201527f6e6578697374656e7420746f6b656e0000000000000000000000000000000000602082015250565b7f4552433732313a20617070726f76616c20746f2063757272656e74206f776e6560008201527f7200000000000000000000000000000000000000000000000000000000000000602082015250565b7f4552433732313a207472616e736665722063616c6c6572206973206e6f74206f60008201527f776e6572206e6f7220617070726f766564000000000000000000000000000000602082015250565b7f455243373231456e756d657261626c653a20676c6f62616c20696e646578206f60008201527f7574206f6620626f756e64730000000000000000000000000000000000000000602082015250565b613dc18161359b565b8114613dcc57600080fd5b50565b613dd8816135ad565b8114613de357600080fd5b50565b613def816135b9565b8114613dfa57600080fd5b50565b613e0681613605565b8114613e1157600080fd5b5056fea2646970667358221220904a6e395e19a2d423ed903c029f97c7f15a098352d072a8bbb2cd2b30d1e97a64736f6c63430008040033516d5a4762724b6d4d6d365456785a4e5a7a57726b7171784d365066636f726e72775339544641456b5976555859",
  "linkReferences": {},
  "deployedLinkReferences": {}
}